:100000000C9434000C9451000C9451000C94510049
:100010000C9451000C9451000C9451000C9451001C
:100020000C9451000C9451000C9451000C9451000C
:100030000C9451000C9451000C9451000C945100FC
:100040000C9451000C9451000C9451000C945100EC
:100050000C9451000C9451000C9451000C945100DC
:100060000C9451000C94510011241FBECFEFD8E026
:10007000DEBFCDBF12E0A0E0B1E0EAE4F8E102C0EB
:1000800005900D92A431B107D9F712E0A4E1B2E0D6
:1000900001C01D92A432B107E1F70E948A0A0C94B4
:1000A000230C0C940000EF92FF920F931F937B019F
:1000B0008C0120E030E040E05FE40E942F048823C0
:1000C0008CF0C801B70120E030E040E05FE40E941E
:1000D000CB010E941D059B01AC01205030404040E7
:1000E000504806C0C801B7010E941D059B01AC0124
:1000F000B901CA011F910F91FF90EF900895A0E000
:10010000B0E0E5E8F0E00C94EC0BDC012B01FA0127
:100110009C91923008F439C1EB018881823008F457
:1001200033C1943069F4843009F02FC111969C9149
:1001300011978981981709F428C1A0E0B1E025C181
:10014000843009F421C18230A9F4923009F01DC134
:100150009A01AD0188E0EA010990AE01E901099236
:100160009E018150C1F7E201898111969C918923FA
:10017000818308C1923009F407C112962D903C90FA
:100180001397EB018A819B811496AD90BD90CD9021
:10019000DC901797EC80FD800E811F819101281B58
:1001A000390BB90137FF04C066277727621B730B31
:1001B000603271050CF061C0121613066CF5370140
:1001C0004801062E04C096948794779467940A9405
:1001D000D2F721E030E040E050E004C0220F331FAE
:1001E000441F551F6A95D2F721503040404050407F
:1001F0002E213F2140235123211531054105510571
:1002000021F021E030E040E050E079018A01E62869
:10021000F728082919293CC0232BD1F1260E371EB7
:1002200035014601062E04C096948794779467940E
:100230000A94D2F721E030E040E050E004C0220F01
:10024000331F441F551F6A95D2F72150304040405C
:1002500050402A213B214C215D21211531054105CA
:10026000510521F021E030E040E050E059016A0101
:10027000A628B728C828D9280BC0821593052CF0CA
:100280001C01AA24BB24650103C0EE24FF248701BE
:1002900011969C91D20111968C91981709F445C042
:1002A000992339F0A80197012A193B094C095D09E6
:1002B00006C0A60195012E193F09400B510B57FDB1
:1002C00008C0118233822282248335834683578378
:1002D0001DC081E081833382228288279927DC0137
:1002E000821B930BA40BB50B84839583A683B783E2
:1002F0000DC0220F331F441F551F248335834683AF
:1003000057838281938101979383828324813581EE
:1003100046815781DA01C9010197A109B1098F5FAF
:100320009F4FAF4FBF4328F30BC09183338222828C
:10033000EA0CFB1C0C1D1D1DE482F582068317834D
:1003400083E08083248135814681578157FF1AC01D
:10035000C901AA2797FDA095BA2F81709070A0704F
:10036000B0705695479537952795822B932BA42BE4
:10037000B52B84839583A683B7838281938101966D
:1003800093838283DF0101C0D201CD01CDB7DEB7F7
:10039000E2E10C94080CA0E2B0E0E1EDF1E00C9495
:1003A000F80B69837A838B839C832D833E834F83F1
:1003B0005887E9E0EE2EF12CEC0EFD1ECE010196E1
:1003C000B7010E940E078E010F5E1F4FCE010596EA
:1003D000B8010E940E078A8991E089278A8BC7019C
:1003E000B801AE01475E5F4F0E947F000E94390650
:1003F000A096E6E00C94140CA0E2B0E0E2E0F2E09B
:100400000C94F80B69837A838B839C832D833E83C2
:100410004F835887F9E0EF2EF12CEC0EFD1ECE0134
:100420000196B7010E940E078E010F5E1F4FCE018D
:100430000596B8010E940E07C701B801AE01475EDC
:100440005F4F0E947F000E943906A096E6E00C9460
:10045000140CA0E2B0E0EFE2F2E00C94EC0B698344
:100460007A838B839C832D833E834F835887CE0171
:100470000196BE01675F7F4F0E940E07CE01059671
:10048000BE016F5E7F4F0E940E079985923088F003
:1004900089898230C8F0943019F4823051F404C054
:1004A000843029F4923081F480E091E0C6C092302B
:1004B00049F420E09A858A89981321E02A87CE01A1
:1004C0000996BBC0823049F420E09A858A89981346
:1004D00021E02A8BCE014196B0C02D843E844F840A
:1004E00058886D887E888F88988CEE24FF24870139
:1004F000AA24BB24650140E050E060E070E0E0E049
:10050000F0E0C10181709070892BE9F0E60CF71CD6
:10051000081D191D9A01AB012A0D3B1D4C1D5D1DC7
:1005200080E090E0A0E0B0E0E614F70408051905CB
:1005300020F481E090E0A0E0B0E0BA01A901480F0A
:10054000591F6A1F7B1FAA0CBB1CCC1CDD1C97FE0D
:1005500008C081E090E0A0E0B0E0A82AB92ACA2A49
:10056000DB2A3196E032F10549F0660C771C881CD5
:10057000991C5694479437942794C3CFFA85EA89F7
:100580002B893C898B859C85280F391F2E5F3F4F17
:1005900017C0CA0181709070892B61F0169507957C
:1005A000F794E79480E090E0A0E0B0E8E82AF92A28
:1005B0000A2B1B2B76956795579547952F5F3F4FD5
:1005C00077FDE7CF0CC0440F551F661F771F17FD3F
:1005D0004160EE0CFF1C001F111F215030404030C5
:1005E00090E0590790E0690790E4790760F32B8F5A
:1005F0003C8FDB01CA018F779070A070B07080349F
:100600009105A105B10561F447FD0AC0E114F104AB
:100610000105110529F0405C5F4F6F4F7F4F407817
:100620001A8EFE1711F081E08A8F4D8F5E8F6F8FCB
:1006300078A383E0898FCE0149960E943906A0965F
:10064000E2E10C94080CA8E1B0E0E9E2F3E00C94DC
:10065000F40B69837A838B839C832D833E834F8342
:100660005887B9E0EB2EF12CEC0EFD1ECE01019661
:10067000B7010E940E078E010F5E1F4FCE01059637
:10068000B8010E940E072985223008F47EC03989FE
:10069000323010F4B8017CC08A859A8989278A870C
:1006A000243011F0223031F4231709F06EC060E0DD
:1006B00071E06EC0343039F41D861E861F86188A9C
:1006C0001C861B8604C0323021F484E08987B70180
:1006D0005FC02B853C858B899C89281B390B3C8707
:1006E0002B87ED84FE840F851889AD88BE88CF885E
:1006F000D88CEA14FB040C051D0540F4EE0CFF1C1D
:10070000001F111F215030403C872B8720E030E034
:1007100040E050E080E090E0A0E0B0E460E070E015
:10072000EA14FB040C051D0540F0282B392B4A2B3D
:100730005B2BEA18FB080C091D09B695A795979540
:100740008795EE0CFF1C001F111F6F5F7F4F6F31ED
:10075000710531F7DA01C9018F779070A070B07020
:1007600080349105A105B10561F427FD0AC0E114AB
:10077000F1040105110529F0205C3F4F4F4F5F4FF9
:1007800020782D873E874F87588BBE01675F7F4F4C
:10079000CB010E9439066896EAE00C94100CA8E19F
:1007A000B0E0E5EDF3E00C94F80B69837A838B837A
:1007B0009C832D833E834F83588789E0E82EF12C5C
:1007C000EC0EFD1ECE010196B7010E940E078E01B0
:1007D0000F5E1F4FCE010596B8010E940E07898556
:1007E000823040F08989823028F0C701B8010E9428
:1007F000860701C081E06896E6E00C94140CA8E13D
:10080000B0E0E5E0F4E00C94F80B69837A838B8325
:100810009C832D833E834F83588789E0E82EF12CFB
:10082000EC0EFD1ECE010196B7010E940E078E014F
:100830000F5E1F4FCE010596B8010E940E078985F5
:10084000823040F08989823028F0C701B8010E94C7
:10085000860701C08FEF6896E6E00C94140CA8E1BF
:10086000B0E0E5E3F4E00C94F80B69837A838B83C2
:100870009C832D833E834F83588789E0E82EF12C9B
:10088000EC0EFD1ECE010196B7010E940E078E01EF
:100890000F5E1F4FCE010596B8010E940E07898595
:1008A000823040F08989823028F0C701B8010E9467
:1008B000860701C08FEF6896E6E00C94140CA8E15F
:1008C000B0E0E5E6F4E00C94F80B69837A838B835F
:1008D0009C832D833E834F83588789E0E82EF12C3B
:1008E000EC0EFD1ECE010196B7010E940E078E018F
:1008F0000F5E1F4FCE010596B8010E940E07898535
:10090000823040F08989823028F0C701B8010E9406
:10091000860701C081E06896E6E00C94140CA8E11B
:10092000B0E0E5E9F4E00C94F80B69837A838B83FB
:100930009C832D833E834F83588789E0E82EF12CDA
:10094000EC0EFD1ECE010196B7010E940E078E012E
:100950000F5E1F4FCE010596B8010E940E078985D4
:10096000823040F08989823028F0C701B8010E94A6
:10097000860701C081E06896E6E00C94140CA8E0BC
:10098000B0E0E5ECF4E00C94F50B9B01AC0183E0E6
:100990008983DA01C9018827B7FD83959927AA279A
:1009A000BB27B82E211531054105510519F482E008
:1009B00089833AC08823A9F0203080E0380780E09E
:1009C000480780E8580729F460E070E080E09FEC79
:1009D00030C0EE24FF248701E21AF30A040B150B42
:1009E00002C079018A018EE1C82ED12CDC82CB8233
:1009F000ED82FE820F831887C801B7010E94EA05C5
:100A000001971816190684F4082E04C0EE0CFF1C7A
:100A1000001F111F0A94D2F7ED82FE820F83188700
:100A2000C81AD90ADC82CB82BA82CE0101960E9412
:100A300039062896E9E00C94110CACE0B0E0E3E252
:100A4000F5E00C94FC0B69837A838B839C83CE0145
:100A50000196BE016B5F7F4F0E940E078D81823031
:100A600061F1823050F1843021F48E81882351F17C
:100A70002EC02F81388537FD20C06E812F31310582
:100A80001CF06623F9F023C08EE190E0821B930BEB
:100A900029853A854B855C8504C0569547953795E1
:100AA00027958A95D2F76623B1F0509540953095F9
:100AB00021953F4F4F4F5F4F0EC020E030E040E0A8
:100AC00050E009C02FEF3FEF4FEF5FE704C020E099
:100AD00030E040E050E8B901CA012C96E2E00C9405
:100AE000180CA8E0B0E0E7E7F5E00C94F40B7B010C
:100AF0008C01611571058105910519F482E08983E6
:100B000060C083E089838EE1C82ED12CDC82CB8249
:100B1000ED82FE820F831887C801B7010E94EA05A3
:100B2000FC013197F7FF3BC0222733272E1B3F0BD9
:100B300057016801022E04C0D694C794B794A794B5
:100B40000A94D2F740E050E060E070E081E090E08D
:100B5000A0E0B0E004C0880F991FAA1FBB1F2A9510
:100B6000D2F70197A109B1098E219F21A023B123BA
:100B70000097A105B10521F041E050E060E070E090
:100B80004A295B296C297D294D835E836F83788791
:100B90008EE190E08E1B9F0B9C838B8312C030975D
:100BA00081F00E2E04C0EE0CFF1C001F111F0A94D2
:100BB000D2F7ED82FE820F831887CE1ADF0ADC821D
:100BC000CB821A82CE0101960E9439062896EAE06D
:100BD0000C94100CEF92FF920F931F937B018C01EA
:100BE00080E0E81680E0F80681E0080780E018075A
:100BF00088F48FEFE816F1040105110531F028F0B3
:100C000088E090E0A0E0B0E017C080E090E0A0E0D5
:100C1000B0E012C080E0E81680E0F80680E0080747
:100C200081E0180728F088E190E0A0E0B0E004C07F
:100C300080E190E0A0E0B0E020E230E040E050E071
:100C4000281B390B4A0B5B0B04C016950795F794CC
:100C5000E7948A95D2F7F701E85FFE4F8081281B61
:100C6000310941095109C9011F910F91FF90EF907E
:100C70000895DF92EF92FF920F931F93FC01E4809F
:100C8000F58006811781D1808081823048F480E030
:100C900090E0A0E1B0E0E82AF92A0A2B1B2BA5C0BE
:100CA000843009F49FC0823021F4EE24FF248701B0
:100CB00005C0E114F1040105110519F4E0E0F0E0CC
:100CC00096C0628173819FEF623879070CF05BC038
:100CD00022E83FEF261B370B2A3131052CF020E0AC
:100CE00030E040E050E02AC0B801A701022E04C065
:100CF00076956795579547950A94D2F781E090E0ED
:100D0000A0E0B0E004C0880F991FAA1FBB1F2A955E
:100D1000D2F70197A109B1098E219F21A023B12308
:100D20000097A105B10521F081E090E0A0E0B0E0DE
:100D30009A01AB01282B392B4A2B5B2BDA01C90115
:100D40008F779070A070B07080349105A105B105C7
:100D500039F427FF09C0205C3F4F4F4F5F4F04C05D
:100D6000215C3F4F4F4F5F4FE0E0F0E02030A0E0CC
:100D70003A07A0E04A07A0E45A0710F0E1E0F0E0EB
:100D800079018A0127C06038710564F5FB01E158DB
:100D9000FF4FD801C7018F779070A070B07080347A
:100DA0009105A105B10539F4E7FE0DC080E490E09E
:100DB000A0E0B0E004C08FE390E0A0E0B0E0E80E77
:100DC000F91E0A1F1B1F17FF05C016950795F794FC
:100DD000E794319687E016950795F794E7948A95FE
:100DE000D1F705C0EE24FF248701EFEFF0E06E2F6E
:100DF000679566276795902F9F77D794DD24D794C2
:100E00008E2F8695492F462B582F5D29B701CA0191
:100E10001F910F91FF90EF90DF900895FC01DB018F
:100E2000408151812281622F6F7770E0221F22273B
:100E3000221F9381892F880F822B282F30E0991F42
:100E40009927991F11969C93119721153105A9F5A2
:100E5000411551056105710511F482E037C082E842
:100E60009FEF13969C938E9312979A01AB0167E0C4
:100E7000220F331F441F551F6A95D1F783E08C93CF
:100E80000DC0220F331F441F551F12968D919C9148
:100E90001397019713969C938E931297203080E0BE
:100EA000380780E0480780E4580758F314962D93DC
:100EB0003D934D935C93179708952F3F310579F437
:100EC000411551056105710519F484E08C9308956D
:100ED00064FF03C081E08C9312C01C9210C02F5796
:100EE000304013963C932E93129783E08C9387E0C7
:100EF000440F551F661F771F8A95D1F770641496AB
:100F00004D935D936D937C93179708951F93DC0128
:100F1000FB019C91923008F447C08081823008F434
:100F200043C0943051F411961C91843099F581811D
:100F3000682F70E0611B71093FC0843021F092304E
:100F400031F48230B9F18181882389F12DC0119665
:100F50001C9111978230F1F081811817D9F4129603
:100F60002D913C911397828193818217930794F07E
:100F700028173907BCF014968D919D910D90BC9166
:100F8000A02D2481358146815781281739074A07CA
:100F90005B0718F4112341F00AC082179307A407D6
:100FA000B50740F4112319F061E070E005C06FEF60
:100FB0007FEF02C060E070E0CB011F91089580E4F4
:100FC00080937C0087E880937A00089590917C005C
:100FD000907E90937C0090917C008770892B809309
:100FE0007C0080917C00806280937C0080917A00FC
:100FF000806480937A0080917A0084FFFCCF809196
:101000007A00806180937A00209178008091790045
:10101000229526952695237030E090E0880F991F41
:10102000880F991F282B392BC90108952F924F92B1
:101030005F926F927F928F929F92AF92BF92CF9268
:10104000DF92EF92FF920F931F93DF93CF9300D025
:10105000CDB7DEB780E00E94E6078453914030F0C0
:1010600081E00E94BB092224239404C081E00E94F5
:10107000D909222481E00E94E6078453914030F090
:1010800082E00E94BB09EE24E39404C082E00E9447
:10109000D909EE2482E00E94E6078453914030F0A3
:1010A00083E00E94BB09AA24A39404C083E00E94A9
:1010B000D909AA2483E00E94E6078453914028F0CE
:1010C00084E00E94BB0901E004C084E00E94D909C9
:1010D00000E084E00E94E6078353914028F085E019
:1010E0000E94BB0911E004C085E00E94D90910E00C
:1010F00085E00E94E6078353914028F086E00E9435
:10110000BB0981E004C086E00E94D90980E022206A
:1011100079F4EE2069F4AA2059F4002349F411234C
:1011200039F4882329F4E0E070E08FE763E491C0AC
:10113000FF248A2C9924E02FF0E0FA83E983612EC2
:101140007724482E5524622D70E080E090E00E94C4
:1011500071055B016C01B701660F771F882777FD6A
:101160008095982F0E94BF049B01AC01C601B50178
:101170000E94FC015B016C01B401660F771F680DD2
:10118000791D882777FD8095982F0E94BF049B01C9
:10119000AC01C601B5010E94FC015B016C016981D3
:1011A0007A81660F771F660F771F882777FD8095F6
:1011B000982F0E94BF049B01AC01C601B5010E949B
:1011C000FC015B016C01B301660F771F660F771F8F
:1011D000660D771D882777FD8095982F0E94BF04A4
:1011E0009B01AC01C601B5010E94FC015B016C01D1
:1011F000B201660F771F640D751D660F771F882774
:1012000077FD8095982F0E94BF049B01AC01C60119
:10121000B5010E94FC015B016C01E20CF11CE80CC1
:10122000F91C29813A81E20EF31EE60CF71CE40C4E
:10123000F51C0027F7FC0095102FC801B7010E948C
:10124000BF049B01AC01C601B5010E942303E62F38
:10125000692F2E2F372F482F562FB901CA010F9013
:101260000F90CF91DF911F910F91FF90EF90DF9042
:10127000CF90BF90AF909F908F907F906F905F9036
:101280004F902F90089584B1806384B98AB1806FA4
:101290008AB985B18F7C85B98BB18F708BB9089570
:1012A00040E050E020E931E02C9A84EF91E0F90130
:1012B0003197F1F70197D9F72C9884EF91E0F90174
:1012C0003197F1F70197D9F72D9A84EF91E0F90161
:1012D0003197F1F70197D9F72D9884EF91E0F90153
:1012E0003197F1F70197D9F75C9A84EF91E0F90112
:1012F0003197F1F70197D9F75C9884EF91E0F90104
:101300003197F1F70197D9F75D9A84EF91E0F901F0
:101310003197F1F70197D9F75D9884EF91E0F901E2
:101320003197F1F70197D9F75E9A84EF91E0F901CF
:101330003197F1F70197D9F75E9884EF91E0F901C1
:101340003197F1F70197D9F75F9A84EF91E0F901AE
:101350003197F1F70197D9F75F9884EF91E0F901A0
:101360003197F1F70197D9F74F5F5F4F4330510540
:1013700009F09ACF0895482F50E0833068F425B1E2
:101380004D5F5F4F81E090E002C0880F991F4A9542
:10139000E2F7282B25B908952BB14F5F5F4F81E00D
:1013A00090E002C0880F991F4A95E2F7282B2BB9CD
:1013B0000895482F50E0833070F425B14D5F5F4FA2
:1013C00081E090E002C0880F991F4A95E2F780956E
:1013D000822385B908952BB14F5F5F4F81E090E084
:1013E00002C0880F991F4A95E2F7809582238BB936
:1013F00008956F927F928F929F92AF92BF92CF92F9
:10140000DF92EF92FF920F931F937B018C01CA0131
:10141000B901A80197010E94CB015B016C016091A9
:1014200018027091190280911A0290911B020E9479
:10143000BF043B014C01C601B50120910802309167
:10144000090240910A0250910B020E9429027B017D
:101450008C01C401B301209110023091110240911E
:101460001202509113020E9429029B01AC01C80193
:10147000B7010E94FC017B018C0160911C027091FC
:101480001D0280911E0290911F020E94BF049B01C9
:10149000AC01C601B5010E94CB0120910C02309134
:1014A0000D0240910E0250910F020E9429029B01F1
:1014B000AC01C801B7010E94FC017B018C01C40191
:1014C000B301A60195010E94FC010E941D056093D5
:1014D00018027093190280931A0290931B02C6019E
:1014E000B5010E941D0560931C0270931D0280933C
:1014F0001E0290931F02B701C8011F910F91FF9028
:10150000EF90DF90CF90BF90AF909F908F907F90A3
:101510006F900895EF92FF920F931F930E944309DB
:101520000E9450090E94860B0E94DF070F2EF0E0F8
:10153000EF2EF0E0FF2EF0E00F2FF0E01F2FF02D48
:101540000E9416086093140270931502809316028D
:101550009093170220E030E04FE753E40E94CF035E
:10156000882341F4E0921402F092150200931602CF
:101570001093170260911402709115028091160267
:101580009091170220E030E040E650E40E94F90913
:101590006093200270932102809322029093230291
:1015A00020E030E04FEF53E40E94FF03181664F48C
:1015B00080E090E0AFEFB3E48093200290932102AB
:1015C000A0932202B0932302609120027091210225
:1015D000809122029091230220E030E04FEF53EC03
:1015E0000E945F04882364F480E090E0AFEFB3ECE6
:1015F0008093200290932102A0932202B0932302B1
:10160000E0902002F090210200912202109123022A
:10161000C801B70120E030E040E050E00E942F0414
:10162000882364F1C801B70120E030E04FE753E4BC
:101630000E94FF03181674F4C801B70120E030E0DF
:101640004FE753E40E94CB010E9453009B01AC0181
:1016500081E00DC060E070E08FE793E4A80197019E
:101660000E94CB010E9453009B01AC0182E0622FDB
:101670000E94C00B81E06FEF0E94940BE09020026B
:10168000F09021020091220210912302C801B701BB
:1016900020E030E040E050E00E948F0418166CF12A
:1016A000C801B70120E030E04FE753EC0E945F042F
:1016B00088237CF4C801B70120E030E04FE753E411
:1016C0000E94FC0190580E9453009B01AC0182E0F3
:1016D0000DC0C801B70120E030E04FE753E40E949D
:1016E000FC010E9453009B01AC0181E0622F0E942B
:1016F000940B82E06FEF0E94C00BE0901402F09018
:10170000150200911602109117021ACFE0E8F0E0DE
:101710008081816A808384E080938100219A229A6B
:101720008AB18F608AB908951F93882319F4589855
:10173000599809C0813019F45898599A04C08230D8
:1017400011F45998589A1FB7F89470E080E090E02F
:101750000E94710520E030E04FE753E40E9423032C
:1017600020E030E048EC52E40E9429020E9453003D
:1017700070E070938900609388001FBF1F910895E7
:101780001F93882319F45A985B9809C0823019F482
:101790005B985A9A04C0813011F45A985B9A1FB72B
:1017A000F89470E080E090E00E94710520E030E065
:1017B0004FE753E40E94230320E030E048EC52E47A
:1017C0000E9429020E94530070E070938B00609386
:1017D0008A001FBF1F9108952F923F924F925F92F0
:1017E0006F927F928F929F92AF92BF92CF92DF9231
:1017F000EF92FF920F931F93CF93DF93CDB7DEB796
:10180000CA1BDB0B0FB6F894DEBF0FBECDBF099429
:101810002A88398848885F846E847D848C849B8480
:10182000AA84B984C884DF80EE80FD800C811B818E
:10183000AA81B981CE0FD11D0FB6F894DEBF0FBEBD
:0A184000CDBFED010895F894FFCF2D
:10184A00000000000000000000010202030303037D
:10185A000404040404040404050505050505050536
:10186A000505050505050505060606060606060616
:10187A0006060606060606060606060606060606FE
:10188A0006060606060606060707070707070707E6
:10189A0007070707070707070707070707070707CE
:1018AA0007070707070707070707070707070707BE
:1018BA0007070707070707070707070707070707AE
:1018CA000707070707070707080808080808080896
:1018DA00080808080808080808080808080808087E
:1018EA00080808080808080808080808080808086E
:1018FA00080808080808080808080808080808085E
:10190A00080808080808080808080808080808084D
:10191A00080808080808080808080808080808083D
:10192A00080808080808080808080808080808082D
:10193A00080808080808080808080808080808081D
:10194A000808080808080808000016430000C842EA
:04195A00CDCC4C3E66
:00000001FF
