:100000000C9434000C9449000C9449000C94490061
:100010000C9449000C9449000C9449000C9449003C
:100020000C9449000C9449000C9449000C9449002C
:100030000C9449000C9449000C9449000C9449001C
:100040000C9449000C9449000C9449000C9449000C
:100050000C9449000C9449000C9449000C944900FC
:100060000C9449000C94490011241FBECFEFD8E036
:10007000DEBFCDBF11E0A0E0B1E0EAE8F1E002C0F0
:1000800005900D92A030B107D9F70E949E000C9404
:10009000C3000C94000080E480937C0087E8809388
:1000A0007A00089590917C00907E90937C009091CE
:1000B0007C008770892B80937C0080917C0080621B
:1000C00080937C0080917A00806480937A00809194
:1000D0007A0084FFFCCF80917A00806180937A005F
:1000E000209178008091790022952695269523709D
:1000F00030E090E0880F991F880F991F282B392B2B
:10010000C9010895259A089520E030E040E951E0C2
:100110002D9888EE93E0FA013197F1F70197D9F71E
:100120002D9A88EE93E0FA013197F1F70197D9F70C
:100130002F5F3F4F2A30310559F708950E94820002
:100140000E94B5000E944B0080E00E945200805047
:10015000924010F00E94840081E00E9452008B5275
:10016000914090F30E948400EFCFE0E8F0E08081BE
:10017000816A808381E080938100219A229A8AB1EA
:0A0180008F608AB90895F894FFCF4C
:00000001FF
